:020000040800F2
:100000001005002001010008C11B00082F15000881
:10001000BD1B000821020008D11D000800000000DF
:10002000000000000000000000000000451D000866
:100030003F02000800000000C31B0008611D00080B
:100040001B0100081B0100081B0100081B01000820
:100050001B0100081B0100081B0100081B01000810
:100060001B0100081B0100081B0100081B01000800
:100070001B0100081B0100081B0100081B010008F0
:100080001B0100081B0100081B0100081B010008E0
:100090001B0100081B0100081B0100081B010008D0
:1000A0001B0100081B0100081B0100081B010008C0
:1000B0001B0100081B0100081B0100081B010008B0
:1000C0001B0100081B0100081B0100081B010008A0
:1000D0001B0100081B0100081B0100081B01000890
:1000E0001B0100081B0100081B010008DFF80CD0F1
:1000F00000F06CF800480047752400081005002047
:100100000648804706480047FEE7FEE7FEE7FEE7B1
:10011000FEE7FEE7FEE7FEE7FEE7FEE7CF1D00088D
:10012000ED000008202A04DB203A21FA02F0002129
:10013000704721FA02F3D040C2F1200291400843F7
:1001400019467047D2B201E000F8012B491EFBD2DC
:1001500070470022F6E710B513460A4604461946D2
:10016000FFF7F0FF204610BD2DE9F05F05460020A7
:1001700092469B4688460646814640241BE0284618
:10018000414647462246FFF7CDFF53465A46C01A1E
:10019000914110D311461846224600F029F82D1A35
:1001A00067EB01084F4622460120002100F020F8AD
:1001B00017EB00094E41201EA4F10104DFDC484684
:1001C00031462A464346BDE8F09F0000064C074DE5
:1001D00006E0E06840F0010394E807009847103417
:1001E000AC42F6D3FFF786FF5825000878250008B3
:1001F000202A04DB203A00FA02F1002070479140E7
:10020000C2F1200320FA03F319439040704710B560
:10021000142001F0FBFC0321142001F094FD10BD1B
:1002200000BFFEE770B505460C46284601F0EEFC1F
:10023000064626EA0401284601F0CCFD70BD704751
:100240007047000070B5044600F0A6F90646254642
:10025000681C10B104480078054400BF00F09CF908
:10026000801BA842FAD370BD380000202DE9F84762
:100270000346002294466EE14FF0010808FA02F4AA
:10028000D1F8008008EA0400A0427DD1DFF8DCA2AA
:10029000D1F80480A8EB0A09D0453AD014DCB8F1B3
:1002A000030F50D009DCB8F1000F31D0B8F1010FC5
:1002B0001CD0B8F1020F49D120E0B8F1110F18D0CD
:1002C000B8F1120F42D11EE0B9F5881F25D006DC27
:1002D000B9F5803F20D0B9F5801F37D11AE0B9F5C4
:1002E000001F18D0B9F5041F30D117E0D1F80CC0A9
:1002F0002DE0D1F80C8008F1040C28E0D1F80C8036
:1003000008F1080C23E0D1F80C8008F10C0C1EE079
:1003100000BF00BF00BF00BF00BF00BFD1F8088012
:10032000B8F1000F02D14FF0040C0BE0D1F80880B7
:10033000B8F1010F03D14FF0080C1C6102E04FF03F
:10034000080C5C6103E04FF0000C00E000BF00BF50
:10035000FF2801D8984601E003F104084646FF282B
:1003600002D84FEA820803E0A2F108084FEA8808A1
:100370004746D6F800804FF00F0909FA07F928EA36
:1003800009080CFA07F900E088E048EA0908C6F80D
:100390000080D1F8048008F08058B8F1805F7DD1EA
:1003A00000BFDFF8CC81D8F8188048F00108DFF8EA
:1003B000C091C9F81880C846D8F8188008F001081C
:1003C000CDF8008000BF00BF4FEAB9384FEA92096C
:1003D00058F829504FEA82784FEA18794FF00F0801
:1003E00008FA09F825EA0805DFF88881434502D1B3
:1003F0004FF0000816E0DFF88081434502D14FF04E
:1004000001080FE0DFF87481434502D14FF0020884
:1004100008E0DFF86C81434502D14FF0030801E0AA
:100420004FF004084FEA82794FEA197908FA09F87F
:1004300048EA0505DFF84C814FEA920948F829504F
:10044000D1F8048008F48038B8F5803F0AD1DFF88D
:100450003881D8F8008048EA0008DFF82C91C9F804
:10046000008009E0DFF82081D8F8008028EA000841
:10047000DFF81491C9F80080D1F8048008F400383E
:10048000B8F5003F10D1DFF8008108F10408D8F872
:10049000008048EA0008DFF8F09000E05AE009F137
:1004A0000409C9F800800DE0DFF8DC8008F10408D9
:1004B000D8F8008028EA0008DFF8CC9009F1040998
:1004C000C9F80080D1F8048008F48018B8F5801FBE
:1004D0000ED1DFF8B48008F10808D8F8008048EAA7
:1004E0000008DFF8A49009F10809C9F800800DE0C0
:1004F000DFF8948008F10808D8F8008028EA00089E
:10050000DFF8849009F10809C9F80080D1F8048067
:1005100008F40018B8F5001F0ED1DFF86C8008F160
:100520000C08D8F8008048EA0008DFF85C9009F170
:100530000C09C9F800800DE0DFF84C8008F10C08C8
:10054000D8F8008028EA0008DFF83C9009F10C098F
:10055000C9F80080521CD1F8008028FA02F8B8F1DE
:10056000000F7FF489AEBDE8F8870000000011108D
:100570000010024000080140000C01400010014042
:100580000014014008000140000401400AB101616B
:1005900001E00B04036170470148006870470000E8
:1005A0003000002070B504460CB9012070BD94F8ED
:1005B0003D0028B9002084F83C00204600F092F964
:1005C000242084F83D002068006820F001002168A4
:1005D00008602068006840F40040216808602068D6
:1005E000006820F400402168086000F043FB0546E5
:1005F0005C496068884206D85B48854201D2012088
:1006000007E0002005E05948854201D2012000E0C2
:100610000020012800D1C9E75548B5FBF0F6206855
:10062000406820F03F003043216848604D496068D1
:10063000884201D8701C07E04FF4967070434FF465
:100640007A71B0FBF1F0401C2168096A21F03F018A
:1006500008432168086243496068884214D8681ECC
:1006600061684900B0FBF1F0401CC0F30B000428A6
:1006700001D204203DE0681E61684900B0FBF1F042
:10068000401CC0F30B0034E0A06838B9681E6168F4
:1006900001EB4101B0FBF1F0401C0AE0681E61680B
:1006A00001EBC10202EB0111B0FBF1F0401C40F480
:1006B0008040C0F30B0008B901201AE0A06848B9D7
:1006C000681E616801EB4101B0FBF1F0401CC0F312
:1006D0000B000CE0681E616801EBC10202EB011126
:1006E000B0FBF1F0401CC0F30B0040F4804040F43C
:1006F00000402168C9694CF6FF72914308432168A4
:10070000C861D4E9070108432168096821F0C001E4
:10071000084321680860D4E9031008432168896808
:1007200048F2FF329143084321688860D4E905010B
:1007300008432168C96821F0FF0108432168C860A7
:100740002068006840F001002168086000202064F3
:10075000202084F83D000020206384F83E0000BF84
:1007600024E70000A086010080841E0000093D00EF
:1007700040420F002DE9F8430446894616461F46BD
:10078000DDF82080FFF708FF054694F83D0020289B
:100790007ED11923012251492046009500F076FFB1
:1007A00010B10220BDE8F88300BF94F83C00012896
:1007B00001D10220F6E7012084F83C0000BF206848
:1007C000006800F0010028B92068006840F00100CE
:1007D000216808602068006820F4006021680860D3
:1007E000212084F83D00102084F83E000020206481
:1007F00066626785608D20853948E0622B464246F7
:100800004946204600F0B4FE08B10120CAE700BF07
:100810000020009020684069009020688069009066
:1008200000BF00BF44E02A464146204600F0D3FF07
:1008300050B1206C042805D12068006840F4007095
:10084000216808600120ADE7606A007821680861CE
:10085000606A401C6062608D401E6085208D401E75
:10086000208520684069C0F3800070B1208D60B1A0
:10087000606A007821680861606A401C6062608D6F
:10088000401E6085208D401E20852A46414600E09E
:1008900022E0204600F0CCFE50B1206C042805D1A7
:1008A0002068006840F4007021680860012079E742
:1008B000208D0028B7D12068006840F400702168BE
:1008C0000860202084F83D00002084F83E0000BF2E
:1008D00084F83C0000BF65E7022063E702001000D7
:1008E0000000FFFF10B586B0044600200290039080
:1008F0000490059015492068884225D100BF14480E
:10090000806940F00800124988610846806900F05B
:100910000800019000BF00BFC02002901220039089
:100920000320059002A90B48FFF7A0FC00BF084870
:10093000C06940F400100649C8610846C06900F467
:100940000010019000BF00BF06B010BD0054004071
:1009500000100240000C0140034800680349097878
:10096000084401490860704730000020380000202A
:1009700010B50848006840F01000064908600320E0
:1009800000F098F8002000F007F800F02BF80020A5
:1009900010BD00000020024070B504460E480078EB
:1009A0004FF47A71B1FBF0F00C490968B1FBF0F536
:1009B000284600F0A2FD08B1012070BD102C07D21E
:1009C00000222146501E00F037F80548046001E07F
:1009D0000120F2E70020F0E7380000203C00002072
:1009E0003400002008B500BF1148806940F00100C4
:1009F0000F4988610846806900F00100009000BF3F
:100A000000BF00BF0846C06940F08050C86108467A
:100A1000C06900F08050009000BF00BF00BF0549D2
:100A2000486820F0E06040F00070486000BF08BDFA
:100A300000100240000001402DE9F05F80460D46A5
:100A40001646002701F0F2F9074639462A46334692
:100A500001F00700C0F1070ABAF1040F02D94FF004
:100A6000040A01E0C0F1070AD14600F1040ABAF114
:100A7000070F02D24FF0000A01E0A0F1030AD446AA
:100A80004FF0010A0AFA09FAAAF1010A0AEA020A6F
:100A90000AFA0CFA4FF0010B0BFA0CFBABF1010B4D
:100AA0000BEA030B4AEA0B042146404601F0C6F963
:100AB000BDE8F09F00BF00F00702064B19684FF633
:100AC000FF031940044B0B4343EA0221014B196019
:100AD00000BF70470CED00E00000FA0570B5044659
:100AE0000D460CB9012070BD5A48006800F007009F
:100AF000A8420ED25748006820F007002843554905
:100B000008600846006800F00700A84201D00120F4
:100B1000E9E7207800F0020002281DD1207800F0DB
:100B20000400042805D14C48406840F4E0604A497C
:100B30004860207800F00800082805D14648406841
:100B400040F46050444948604348406820F0F00059
:100B5000A168084340494860207800F0010078B35C
:100B60006068012806D13C48006800F4003090B964
:100B70000120B8E76068022806D13748006800F015
:100B8000007040B90120AEE73348006800F0020071
:100B900008B90120A7E73048406820F003006168E9
:100BA00008432D494860FFF7F7FC064609E0FFF7C8
:100BB000F3FC801B41F28831884202D9032092E77E
:100BC00007E02548406800F00C006168B0EB810F39
:100BD000EDD12048006800F00700A8420ED91D485A
:100BE000006820F0070028431A490860084600689A
:100BF00000F00700A84201D0012074E7207800F03F
:100C00000400042807D11448406820F4E060E1683B
:100C1000084311494860207800F00800082808D1EE
:100C20000D48406820F46050216940EAC1000A493B
:100C3000486000F02FF808494968C1F30311074ADA
:100C4000515CC8400649086006480068FFF7A4FEEA
:100C5000002048E700200240001002404025000824
:100C60003C0000203400002001480068704700006C
:100C70003C00002000B5FFF7F7FF04494968C1F3C5
:100C80000221034A515CC84000BD00000010024030
:100C900050250008F0B585B00FF26C0C9CE8E01010
:100CA00001A8A0E8E0101CA52D68009500210022F5
:100CB000002300240020194D696801F00C05F5B1EE
:100CC000042D02D0082D19D101E0154819E001AD1D
:100CD000C1F38346AC5D01F4803555B10F4D6D68AD
:100CE000C5F340451DF805200D4D6543B5FBF2F3F6
:100CF00002E00C4D04FB05F3184602E000BF084873
:100D000000BF00BF05B0F0BD0203040506070809D7
:100D10000A0B0C0D0E0F1010010200000010024013
:100D200000127A0000093D00F8B504460CB9012014
:100D3000F8BD207800F00100002878D0F84840681D
:100D400000F00C0004280CD0F548406800F00C00BE
:100D5000082811D1F248406800F48030B0F5803F97
:100D60000AD1EF48006800F4003000285FD06068C6
:100D700000285CD10120DBE700BF6068B0F5803F50
:100D800006D1E748006840F48030E549086028E073
:100D9000606858B9E248006820F48030E049086093
:100DA0000846006820F4802008601AE06068B0F50A
:100DB000A02F0BD1DA48006840F48020D8490860A1
:100DC0000846006840F4803008600AE0D4480068B3
:100DD00020F48030D24908600846006820F4802062
:100DE000086000BF606888B1FFF7D6FB054606E0E3
:100DF000FFF7D2FB401B642801D9032098E7C848BD
:100E0000006800F400300028F2D010E0FFF7C4FBC7
:100E1000054606E0FFF7C0FB401B642801D903200C
:100E200086E7BF48006800F400300028F2D120783F
:100E300000F00200022857D1B948406800F00C00C9
:100E400050B1B748406800F00C00082818D1B448E9
:100E5000406800F4803098B9B148006800F00200A2
:100E600020B12069012801D0012061E7AC48006869
:100E700020F0F800616940EAC100A949086033E048
:100E80002069E8B10120A7490860FFF785FB054606
:100E900006E0FFF781FB401B022801D9032047E74A
:100EA0009F48006800F002000028F2D09C480068CB
:100EB00020F0F800616940EAC1009949086013E038
:100EC000002098490860FFF767FB054606E0FFF73A
:100ED00063FB401B022801D9032029E790480068E2
:100EE00000F002000028F2D1207800F00800082865
:100EF0002DD1A069B8B101208B490860FFF74CFBE8
:100F0000054606E0FFF748FB401B022801D90320F5
:100F10000EE78348406A00F002000028F2D001206A
:100F200000F060FE13E000207F490860FFF734FB0B
:100F3000054606E0FFF730FB401B022801D90320DD
:100F4000F6E67748406A00F002000028F2D12078E7
:100F500000F00400042873D100277148C06900F034
:100F6000805070B900BF6E48C06940F080506C4935
:100F7000C8610846C06900F08050009000BF00BF03
:100F800001276A48006800F48070B0B967480068BB
:100F900040F4807065490860FFF7FEFA054606E0F8
:100FA000FFF7FAFA401B642801D90320C0E65F4826
:100FB000006800F480700028F2D000BFE0680128CB
:100FC00006D15748006A40F001005549086227E001
:100FD000E06858B95248006A20F0010050490862A0
:100FE0000846006A20F00400086219E0E06805285D
:100FF0000BD14B48006A40F004004949086208469A
:10100000006A40F0010008620AE04548006A20F0EA
:101010000100434908620846006A20F004000862A3
:1010200000BFE068A0B1FFF7B7FA054609E0FFF797
:10103000B3FA401B41F28831884202D9032077E697
:1010400022E03748006A00F002000028EFD012E0EA
:10105000FFF7A2FA054608E0FFF79EFA401B41F2AF
:101060008831884201D9032062E62D48006A00F0E9
:1010700002000028F0D1012F05D12948C06920F0D5
:1010800080502749C86100BFE069C8B32448406860
:1010900000F00C00082860D0E069022848D1002048
:1010A00020490866FFF778FA054606E0FFF774FA6C
:1010B000401B022801D903203AE61948006800F0D5
:1010C00000700028F2D1206AB0F5803F07D11448A3
:1010D000406820F40030A168084311494860D4E911
:1010E000080108430E49496821F4741108430C496A
:1010F000486001200B490866FFF74EFA054607E0F5
:101100003DE0FFF749FA401B022801D903200FE612
:101110000348006800F000700028F2D02FE00000C3
:101120000010024000004242800442420070004031
:10113000002014490866FFF72FFA054606E0FFF77E
:101140002BFA401B022801D90320F1E50E48006864
:1011500000F000700028F2D111E0E069012800D110
:10116000E6E50948466806F48031206A814204D1E8
:1011700006F47011606A814201D00120D8E5002098
:10118000D6E50000000042420010024010B50446BF
:101190000CB9012010BD606A38B96068B0F5827F73
:1011A00000D105E00021E16102E0002121616161DF
:1011B0000021A16294F8510028B9002084F8500061
:1011C000204600F043F8022084F8510020680068AF
:1011D00020F0400021680860A08800F48270218916
:1011E00001F404410843A18901F400610843217C12
:1011F00001F002010843217D01F001010843218B28
:1012000001F400710843217F01F0380108432021D7
:10121000095D01F080010843218D01F4005108436C
:10122000216808600421A06901EA10402168486033
:101230002068C06920F400602168C86100206065F2
:10124000012084F851000020A4E7000010B586B00A
:1012500004460020029003900490059019492068EC
:1012600088422DD100BF1848806940F4805016494B
:1012700088610846806900F48050019000BF00BF7B
:1012800000BF0846806940F0040088610846806914
:1012900000F00400019000BF00BFA02002900220D7
:1012A00003900320059002A90848FEF7DFFF4020C5
:1012B000029000200390049002A90448FEF7D6FF94
:1012C00006B010BD0030014000100240000801408F
:1012D0002DE9FF5F0446884691461D460E9E01207B
:1012E00002900020019000BF94F85000012803D123
:1012F000022004B0BDE8F09F012084F8500000BF38
:10130000FFF74AF9074694F851B060680390AA467F
:10131000BBF1010F0BD00398B0F5827F04D1A06818
:1013200010B9BBF1040F02D002200190DBE0B8F14C
:10133000000F03D0B9F1000F00D015B901200190C2
:10134000D1E094F85100042802D0052084F851001F
:1013500000206065C4F83890E587A587C4F8308020
:10136000E586A586206460642068006800F040007F
:10137000402805D02068006840F0400021680860DF
:10138000E068B0F5006F4AD1606810B1BAF1010FA2
:1013900009D1206B00882168C860206B801C206305
:1013A000E08E401EE08633E02068806800F0020096
:1013B000022810D1E08E70B1029801280BD1206B69
:1013C00000882168C860206B801C2063E08E401E6E
:1013D000E086002002902068806800F0010068B17B
:1013E000E08F58B12068C068A16B0880A06B801C9A
:1013F000A063E08F401EE08701200290FFF7CCF849
:10140000C01BB04204D3701C10B1032001906AE0ED
:10141000E08E0028C8D1E08F0028C5D14AE060687E
:1014200010B1BAF1010F09D1206B0078216808735F
:10143000206B401C2063E08E401EE08634E0206874
:10144000806800F00200022810D1E08E70B102988E
:1014500001280BD1206B007821680873206B401C99
:101460002063E08E401EE0860020029020688068A5
:1014700000F0010068B1E08F58B12068C068A16B2E
:101480000870A06B401CA063E08F401EE087012025
:101490000290FFF781F8C01BB04201D3701C00B965
:1014A00016B9032001901EE0E08E0028C7D1E08F1E
:1014B0000028C4D13A463146204600F0C3FB20B193
:1014C00001200190202060650DE0A06850B900BFA8
:1014D000002000902068C06800902068806800901C
:1014E00000BF00BF00BF012084F8510000BF0020F2
:1014F00084F8500000BF0198FBE670B5044625460D
:10150000681EB0F1807F01D301200FE0681E4FF00C
:10151000E02148610F214FF0FF3000F08FFC0020E8
:101520004FF0E021886107200861002070BD00BFF6
:10153000FEE7014608684069C0F38020B0B16FF44F
:1015400080600A68506100200863202081F83D0017
:10155000002081F83E00086C40F00400086400BFE1
:10156000002081F83C0000BF012070470020FCE70C
:101570002DE9F84304460D4617469846E66A082EBC
:1015800004D0012E02D016F5803F06D120680068F5
:1015900040F480702168086008E0206B122805D1B3
:1015A0002068006840F48070216808603B46002293
:1015B0004FF001112046CDF8008000F067F860B1CF
:1015C0002068006800F48070B0F5807F02D14FF48D
:1015D000007020640320BDE8F8832069B0F5804FD7
:1015E00004D105F0FE002168086112E005F44070A6
:1015F000F02141EAE0102168086143463A460B4970
:10160000204600F086F808B10120E4E7E8B221683E
:10161000086143463A460549891F204600F079F89B
:1016200008B10120D7E70020D5E70000080001003D
:1016300070B504460D46164620E02046FFF779FFB8
:1016400008B1012070BD681CC0B1FEF7A5FF801B6A
:10165000A84200D895B900202063202084F83D00DE
:10166000002084F83E00206C40F02000206400BF81
:10167000002084F83C0000BF0120E3E720684069B7
:10168000C0F380000028D8D00020DBE72DE9F0412E
:1016900004460D4617461E46DDF818801CE0701CF7
:1016A000D0B1FEF779FFA0EB0800B04200D89EB998
:1016B00000202063202084F83D00002084F83E00B4
:1016C000206C40F02000206400BF002084F83C0023
:1016D00000BF0120BDE8F081C5F3074001280AD111
:1016E00020684069A9B20840A9B2884201D101200E
:1016F0000BE0002009E020688069A9B20840A9B287
:10170000884201D1012000E00020B842C7D000206B
:10171000E0E72DE9F04104460D4616461F463DE040
:1017200020684069C0F38020E8B12068006840F478
:101730000070216808606FF48060216848610020B3
:101740002063202084F83D00002084F83E00206CB7
:1017500040F00400206400BF002084F83C0000BF7B
:101760000120BDE8F081701CC0B1FEF715FFC01B61
:10177000B04200D896B900202063202084F83D00B4
:10178000002084F83E00206C40F02000206400BF60
:10179000002084F83C0000BF0120E2E7C5F30740C9
:1017A00001280AD120684069A9B20840A9B288423C
:1017B00001D101200BE0002009E020688069A9B276
:1017C0000840A9B2884201D1012000E00020002891
:1017D000A6D00020C5E770B504460D46164620E0A9
:1017E0002046FFF7A6FE08B1012070BD681CC0B1FD
:1017F000FEF7D2FE801BA84200D895B900202063D6
:10180000202084F83D00002084F83E00206C40F049
:101810002000206400BF002084F83C0000BF0120AD
:10182000E3E720684069C0F3C0100028D8D000204A
:10183000DBE72DE9FC410446002700210D2000F0E4
:10184000C9FA932020702020607001A8234602224C
:10185000214600900C2000F05BF806465EB900259A
:1018600003E0605D4740681CC5B2042DF9DB605D94
:10187000B84200D002263046BDE8FC8110B50122F6
:1018800010211248FEF782FE012211461048FEF791
:101890007DFE00F037F88D212A2000F09BFA3E21D2
:1018A0002B2000F097FA1E212D2000F093FA002142
:1018B0002C2000F08FFA4021152000F08BFA3D21FA
:1018C000112000F087FAFEF7A2FC10BD00080140CD
:1018D000000C01407CB506460C4607210D2000F0A7
:1018E00079FA267001A823460122214600900C2097
:1018F00000F00EF8054615B90198102800D0022511
:1019000028467CBD10B50F21012000F063FA10BD00
:101910002DE9FE4F0646884691469A46DDF830B0DE
:10192000022002900020019000900C2E06D00E2E76
:1019300009D1122001901020009005E0772001903D
:101940003020009000E000BF00BF019840F080010F
:10195000022000F03FFA80210420FEF763FC802182
:101960000A2000F0F0F90021012000F033FA0025F0
:1019700005E018F80510092000F02CFA6D1C4D4503
:10198000F7D33146012000F025FA0C2E03D1802137
:101990000D2000F0D8F94FF4FA6500BF042000F0E4
:1019A00035F904466D1E35B104F0010018B90098F0
:1019B00020400028F2D080210D20FEF733FC95B3A3
:1019C000062000F023F900F01B0068BB0020029005
:1019D0000198204000F0010008B1012002900C2E77
:1019E00024D10A2000F012F904460C2000F00EF970
:1019F00000F007072FB1601E07EBC000CBF8000016
:101A000002E0E000CBF8000004B90124102C00DD56
:101A10001024002505E0092000F0F8F80AF8050078
:101A20006D1CA542F7D301E0022002900298BDE8A8
:101A3000FE8F000000B585B0002001900290039059
:101A4000049000BF3948806940F010003749886130
:101A50000846806900F01000009000BF00BF00BF82
:101A60000846806940F0200088610846806900F0DF
:101A70002000009000BF00BF00BF0846806940F012
:101A8000040088610846806900F00400009000BFEF
:101A900000BF00BF0846806940F008008861084622
:101AA000806900F00800009000BF00BF01225103D0
:101AB0001F48FEF76BFD002210211E48FEF766FD51
:101AC000002201211C48FEF761FD4FF400500190F7
:101AD00001200290002003900220049001A91448E4
:101AE000FEF7C4FB1020019001200290002003901B
:101AF0000220049001A90F48FEF7B8FB01200190D5
:101B00000290002003900220049001A90A48FEF7E9
:101B1000ADFB4FF4C050019000200290039001A94A
:101B20000448FEF7A3FB05B000BD00000010024012
:101B30000010014000080140000C014010B50B48A6
:101B40000B4908600B484860002109488160C1606A
:101B50004FF480410161002141618161C1610162F5
:101B6000FEF720FD08B1FEF76BFB10BD00540040EE
:101B700040000020A086010010B50E480E49086004
:101B80004FF48270486000210B488160C1600161A0
:101B900041614FF4007181611021C1610021016236
:101BA000416281620A21C162FFF7F0FA08B1FEF7D3
:101BB00047FB10BD003001409400002000BFFEE74D
:101BC0007047704701B582B06420012301AA02A9C1
:101BD00000900348FFF77CFB9DF804000EBD000059
:101BE0009400002008B508490968C9084FF47A72C2
:101BF000B1FBF2F14143009100BF00BF00994A1EC2
:101C000000920029F9D108BD3C00002070B50446BF
:101C1000002210210A48FEF7B9FC7E2101EA4401A6
:101C200041F08000FFF7CEFF0020FFF7CBFF054615
:101C3000012210210248FEF7A9FC284670BD0000D1
:101C400000080140F8B504460D4616462B46002212
:101C500080212046009600F009F828B1606D40F020
:101C6000200060650320F8BD0020FCE72DE9F84F57
:101C700004460D4690461E46DDF82890FEF78CFC83
:101C8000A0EB0900371AFEF787FC82462C48006853
:101C9000C0F3CB307843009045E0701C002842D060
:101CA000FEF77AFCA0EB0A00B84200D2A7BB20687E
:101CB000406820F0E000216848606068B0F5827FED
:101CC0000DD1A068B0F5004F03D0A068B0F5806FCB
:101CD00005D12068006820F0400021680860A06AF3
:101CE000B0F5005F0DD100BF2068006820F40050FF
:101CF000216808602068006840F40050216808608E
:101D000000BF012084F8510000BF002084F850007B
:101D100000BF0320BDE8F88FFFE7009800B9002757
:101D20000098401E0090206880682840A84201D199
:101D3000012000E000204045AFD10020EAE700008C
:101D40003C000020704770B505460C462846FFF75A
:101D50005DFF064646EA0401284600F03BF870BDE8
:101D600010B5FEF7F9FD10BD00B58FB0282105A80C
:101D7000FEF7EFF914216846FEF7EBF90120059014
:101D800000040690002007900120099002200C908A
:101D9000C1030D914FF4E0110E9105A8FEF7C4FFA9
:101DA00008B1FEF74DFA0F200090022001900020AC
:101DB00002904FF480600390002004900221684656
:101DC000FEF78CFE08B1FEF73BFA0FB000BD70477E
:101DD00000BFFEE770B504460D46002210210848FA
:101DE000FEF7D4FB7E2101EA4400FFF7EBFE284614
:101DF000FFF7E8FE012210210148FEF7C7FB70BD86
:101E0000000801400FB4084B10B504A902AA0398BA
:101E100000F038F8044602A9002000F064FA2046D9
:101E200010BC5DF814FB0000E722000802480068BF
:101E3000C0F30220704700000CED00E010B5002850
:101E400004DB0A07130E054A135406E00A07140EB2
:101E5000034A00F00F031B1FD45410BD00E400E040
:101E600018ED00E002E008C8121F08C1002AFAD1EC
:101E700070477047002001E001C1121F002AFBD10A
:101E8000704700002DE9FF4F8DB00F460546002634
:101E900006E025280BD0DDE90F1290476D1C761C5B
:101EA00028780028F5D111B03046BDE8F08F002425
:101EB000A246A1460122EC4900E0044315F8013F87
:101EC000203B02FA03F00842F7D128782A2810D0E4
:101ED0006FF02F022878A0F13001092914D80AEBFD
:101EE0008A0102EB410144F0020400EB010A6D1C7F
:101EF000F0E701CF5FEA000A03D544F40054CAF1C9
:101F0000000A44F002046D1C28782E2817D115F819
:101F1000010F44F004042A280ED06FF02F02287815
:101F2000A0F1300109290AD809EB890102EB41012E
:101F300000EB01096D1CF2E757F8049B6D1C287833
:101F40006C280FD006DC4C2817D068280DD06A28E2
:101F500014D104E0742810D07A280FD10DE044F495
:101F600000140AE044F4801401E044F44014697859
:101F7000814202D104F580146D1C6D1C2A786E2AF2
:101F80001FD00CDC632A31D004DC002A8BD0582A05
:101F900011D1A3E0642A68D0692A0CD165E0732AC4
:101FA0002ED004DC6F2A73D0702A04D19BE0752AEE
:101FB0006FD0782A6ED01046DDE90F129047761C5C
:101FC00050E1C4F30250022806D0032809D00428A7
:101FD00001CF09D0066045E101CFF117C0E90061EA
:101FE00040E101CF06803DE106703BE117F8040BAC
:101FF0008DF8000000208DF80100EB46012003E081
:1020000057F804BB4FF0FF3061074FF0000102D4D6
:102010000DE008F10101884649450FDA8045F8DBFB
:102020001BF808100029F4D108E008F101018846E6
:102030008142FADB1BF808100029F6D1DDE90F23F5
:10204000AAEB08008146214600F036F9304400EB47
:10205000080604E0DDE90F121BF8010B9047B8F108
:102060000108F7D221464846F7E00A21C4F302539B
:102070004FF0000B0891022B04D001CFC117032BA6
:1020800009D00AE0FF1D27F00707F7E8020108E082
:1020900032E01FE020E000B2C117042B01D140B2B2
:1020A000C117031E71F1000307DA4FF0000CD0EBEB
:1020B0000C006CEB01012D2302E0230504D52B233A
:1020C0008DF82430012303E0E30701D02023F7E754
:1020D000984658E00A2110E010210EE010204FF041
:1020E000000B08900CE010214FF0000B44F00404AA
:1020F0004FF00809089103E008214FF0000B089108
:10210000C4F30253022B04D001CF0021032B06D0CD
:1021100006E0FF1D27F00707F7E8020103E080B2A1
:10212000042B00D1C0B24FF0000823072BD5702A32
:1021300007D0DDF820C08CF0100C5CEA0B0C05D049
:102140000EE040238DF82430012308E050EA01031B
:1021500006D030238DF824308DF8252002239846B0
:10216000DDF820C08CF0080C5CEA0B0C0BD150EAB7
:10217000010301D1630706D530238DF824304FF0D9
:102180000108A9F10109582A04D038A20B9208AA23
:102190000A920BE03AA2F9E75B46089AFDF7E4FFE2
:1021A0000B9B9B5C0A9A521E0A92137050EA010222
:1021B000F2D10A98ADEB000000F1200B600702D5C8
:1021C00024F4803401E04FF00109D94502DDA9EB88
:1021D0000B0000E0002000EB0B0141440890AAEB4B
:1021E000010AE00306D4DDE90F232146504600F042
:1021F00063F806444FF0000908E009A911F8090046
:10220000DDE90F12904709F10109761CC145F4DBA5
:10221000E0030CD5DDE90F232146504600F04CF8D1
:10222000064404E0DDE90F1230209047761C08993F
:10223000481E08900029F5DC08E00A980A99007801
:10224000491C0A91DDE90F129047761CBBF1000191
:10225000ABF1010BF1DC21465046DDE90F2300F024
:1022600019F806446D1C1BE6092801003031323391
:1022700034353637383961626364656600000000C2
:1022800030313233343536373839414243444546AC
:10229000000000002DE9F041044600251E461746C7
:1022A000880404D405E039462020B0476D1C641E24
:1022B000F9D52846BDE8F0812DE9F0410446002516
:1022C0001E469046C80301D5302700E02027880429
:1022D00004D505E041463846B0476D1C641EF9D56B
:1022E0002846BDE8F0810A68531C0B6010707047E7
:1022F00070B505468021284600F068F8002404E007
:102300002021284600F085F8641C462CF8DB70BDBF
:1023100070B506460C46154615B944F0800401E038
:1023200044F0C004E1B2304600F050F870BD10B582
:1023300004463220FDF786FF3021204600F046F8A3
:102340000520FDF77FFF3021204600F03FF80120F7
:10235000FDF778FF3021204600F038F80A20FDF71D
:1023600071FF2021204600F031F80A20FDF76AFFB6
:102370002821204600F02AF80120FDF763FF0821FC
:10238000204600F023F80120FDF75CFF01212046E4
:1023900000F01CF80220FDF755FF0621204600F052
:1023A00015F80120FDF74EFF0C21204600F00EF835
:1023B00010BD70B505460C4604E014F8011B284614
:1023C00000F027F820780028F7D170BD2DE9FC41F6
:1023D00004460D4605F0F006F02000EA051746F029
:1023E0000C008DF8040046F008008DF8050047F059
:1023F0000C008DF8060047F008008DF807006420F7
:1024000000902179042301AA2068FEF7B3F9BDE802
:10241000FC812DE9FC4104460D4605F0F006F02054
:1024200000EA051746F00D008DF8040046F009009B
:102430008DF8050047F00D008DF8060047F0090003
:102440008DF80700642000902179042301AA2068F8
:10245000FEF790F9BDE8FC8110B504480449086016
:102460004E2008710846FFF762FF10BD40000020B3
:10247000280000209CB0FEF77BFAFFF775FCFFF701
:10248000D9FAFFF779FBFFF759FBFFF7F7F9FFF7E9
:10249000E3FF1D48FFF72CFF002211461A48FFF703
:1024A00037FF1AA11848FFF784FF2CE01A492620AD
:1024B000FFF710FA194908701748FFF7BAF91749DA
:1024C0000870174814490A680260097901711348B5
:1024D0000078C0B9124800791149C978104A927839
:1024E000CDE9002102900E48437802780DA103A89F
:1024F000FFF788FC012200210348FFF709FF03A929
:102500000148FFF756FFD1E72800002073746D33B0
:1025100032206C6364000000EC000020000000200A
:102520000100002049443A203078253032582530C7
:102530003258253032582530325825303258000074
:102540000000000000000000010203040607080963
:1025500000000000010203047825000800000020AC
:1025600040000000641E0008B8250008400000205C
:10257000D0040000741E000800000000000000AA43
:10258000313C29E4552D28FFFFFFFFFFFF01020327
:10259000040506007A6167726F732D656C656300D0
:1025A000000000000000000000000000100000001B
:0825B000010000000024F4000A
:04000005080000ED02
:00000001FF
